{
  "contractName": "Creator",
  "abi": [
    {
      "anonymous": false,
      "inputs": [],
      "name": "NewCreator",
      "type": "event"
    },
    {
      "anonymous": false,
      "inputs": [],
      "name": "WelcomeBackCreator",
      "type": "event"
    },
    {
      "constant": true,
      "inputs": [
        {
          "internalType": "address",
          "name": "",
          "type": "address"
        }
      ],
      "name": "CreatorData",
      "outputs": [
        {
          "internalType": "address",
          "name": "owner",
          "type": "address"
        },
        {
          "internalType": "string",
          "name": "imageHash",
          "type": "string"
        },
        {
          "internalType": "string",
          "name": "contentHash",
          "type": "string"
        }
      ],
      "payable": false,
      "stateMutability": "view",
      "type": "function"
    },
    {
      "constant": true,
      "inputs": [
        {
          "internalType": "uint256",
          "name": "",
          "type": "uint256"
        }
      ],
      "name": "allCreators",
      "outputs": [
        {
          "internalType": "address",
          "name": "",
          "type": "address"
        }
      ],
      "payable": false,
      "stateMutability": "view",
      "type": "function"
    },
    {
      "constant": true,
      "inputs": [],
      "name": "numCreators",
      "outputs": [
        {
          "internalType": "uint256",
          "name": "",
          "type": "uint256"
        }
      ],
      "payable": false,
      "stateMutability": "view",
      "type": "function"
    },
    {
      "constant": false,
      "inputs": [],
      "name": "newCreatorSignup",
      "outputs": [],
      "payable": false,
      "stateMutability": "nonpayable",
      "type": "function"
    }
  ],
  "bytecode": "0x608060405234801561001057600080fd5b506107b4806100206000396000f3fe608060405234801561001057600080fd5b506004361061004c5760003560e01c80635df7414314610051578063888e5d9e1461005b578063f4a8482d1461008b578063f9df9851146100bd575b600080fd5b6100596100db565b005b6100756004803603610070919081019061054c565b6102e8565b604051610082919061060c565b60405180910390f35b6100a560048036036100a09190810190610523565b610324565b6040516100b493929190610627565b60405180910390f35b6100c561049e565b6040516100d2919061068c565b60405180910390f35b600260003373ffffffffffffffffffffffffffffffffffffffff1673ffffffffffffffffffffffffffffffffffffffff16815260200190815260200160002060009054906101000a900460ff161561015e577fad569f5f5522837c649404dd673537aa865e803920dd7b1802f2a522bb0f9ad760405160405180910390a16102e6565b6001600260003373ffffffffffffffffffffffffffffffffffffffff1673ffffffffffffffffffffffffffffffffffffffff16815260200190815260200160002060006101000a81548160ff02191690831515021790555060013390806001815401808255809150509060018203906000526020600020016000909192909190916101000a81548173ffffffffffffffffffffffffffffffffffffffff021916908373ffffffffffffffffffffffffffffffffffffffff1602179055505061023260016000546104a490919063ffffffff16565b60008190555033600360003373ffffffffffffffffffffffffffffffffffffffff1673ffffffffffffffffffffffffffffffffffffffff16815260200190815260200160002060000160006101000a81548173ffffffffffffffffffffffffffffffffffffffff021916908373ffffffffffffffffffffffffffffffffffffffff1602179055507f292813b9c444d1e805bb3e342ff6631d3ef0b93de23db3f4462dedfca7ef8d9260405160405180910390a15b565b600181815481106102f557fe5b906000526020600020016000915054906101000a900473ffffffffffffffffffffffffffffffffffffffff1681565b60036020528060005260406000206000915090508060000160009054906101000a900473ffffffffffffffffffffffffffffffffffffffff1690806001018054600181600116156101000203166002900480601f0160208091040260200160405190810160405280929190818152602001828054600181600116156101000203166002900480156103f65780601f106103cb576101008083540402835291602001916103f6565b820191906000526020600020905b8154815290600101906020018083116103d957829003601f168201915b505050505090806002018054600181600116156101000203166002900480601f0160208091040260200160405190810160405280929190818152602001828054600181600116156101000203166002900480156104945780601f1061046957610100808354040283529160200191610494565b820191906000526020600020905b81548152906001019060200180831161047757829003601f168201915b5050505050905083565b60005481565b6000808284019050838110156104ef576040517f08c379a00000000000000000000000000000000000000000000000000000000081526004016104e69061066c565b60405180910390fd5b8091505092915050565b60008135905061050881610743565b92915050565b60008135905061051d8161075a565b92915050565b60006020828403121561053557600080fd5b6000610543848285016104f9565b91505092915050565b60006020828403121561055e57600080fd5b600061056c8482850161050e565b91505092915050565b61057e816106c3565b82525050565b600061058f826106a7565b61059981856106b2565b93506105a98185602086016106ff565b6105b281610732565b840191505092915050565b60006105ca601b836106b2565b91507f536166654d6174683a206164646974696f6e206f766572666c6f7700000000006000830152602082019050919050565b610606816106f5565b82525050565b60006020820190506106216000830184610575565b92915050565b600060608201905061063c6000830186610575565b818103602083015261064e8185610584565b905081810360408301526106628184610584565b9050949350505050565b60006020820190508181036000830152610685816105bd565b9050919050565b60006020820190506106a160008301846105fd565b92915050565b600081519050919050565b600082825260208201905092915050565b60006106ce826106d5565b9050919050565b600073ffffffffffffffffffffffffffffffffffffffff82169050919050565b6000819050919050565b60005b8381101561071d578082015181840152602081019050610702565b8381111561072c576000848401525b50505050565b6000601f19601f8301169050919050565b61074c816106c3565b811461075757600080fd5b50565b610763816106f5565b811461076e57600080fd5b5056fea365627a7a72315820ab385aa6471fed4ce36b67a2240d248a6932c40bb259363ddd15fb488bb3aaf96c6578706572696d656e74616cf564736f6c63430005100040",
  "source": "pragma solidity ^0.5.0;\r\npragma experimental ABIEncoderV2;\r\n\r\nimport './SafeMath.sol';\r\n\r\ncontract Patron {\r\n\r\n    using SafeMath for uint;\r\n\r\n    // Total patrons on platform\r\n    uint public numPatrons;\r\n\r\n    // Mapping to keep track of new patrons\r\n    mapping (address => bool) alreadyRegisteredPatron;\r\n\r\n    // Mapping to get all the Creator ID's patron has subscribed to\r\n    mapping (address => address[]) Subscriptions;                                   // See implementation of add vs uint\r\n\r\n    // Event flagging a new patron\r\n    event NewPatron();\r\n    // Event for welcome back\r\n    event WelcomeBackPatron();\r\n\r\n    modifier isPatronRegistered () {\r\n        require(alreadyRegisteredPatron[msg.sender], \"User not registered!\");\r\n        _;\r\n    }\r\n\r\n    // Function to create a new patron from public address and return success\r\n    function newPatronSignup () public {\r\n        if (alreadyRegisteredPatron[msg.sender]) {\r\n            emit WelcomeBackPatron();\r\n        }\r\n        else {\r\n            alreadyRegisteredPatron[msg.sender] = true;\r\n            numPatrons = numPatrons.add(1);\r\n            emit NewPatron();\r\n        }\r\n    }\r\n\r\n    // Function to get total number of creators a patron has subscribed to\r\n    function getSubscriptionCount() public view isPatronRegistered returns (uint) {\r\n        return Subscriptions[msg.sender].length;\r\n    }\r\n\r\n    // Function to get all creators a patron has subscribed to\r\n    function getSubscriptions() public view isPatronRegistered returns (address[] memory) {\r\n        return Subscriptions[msg.sender];\r\n    }\r\n}\r\n\r\ncontract Creator {\r\n\r\n    using SafeMath for uint;\r\n\r\n    // Structure to store data of a creator\r\n    struct CreatorDatastore {\r\n        address owner;\r\n        string imageHash;\r\n        string contentHash;\r\n    }\r\n\r\n    // Total creators on platform\r\n    uint public numCreators;\r\n\r\n    // Get all creators for frontend\r\n    address[] public allCreators;\r\n\r\n    // Mapping to keep track of new creators\r\n    mapping (address => bool) alreadyRegisteredCreator;\r\n\r\n    // Mapping to get data of a creator\r\n    mapping (address => CreatorDatastore) public CreatorData;\r\n\r\n    // Event flagging a new creator\r\n    event NewCreator();\r\n    // Event for welcome back\r\n    event WelcomeBackCreator();\r\n\r\n    modifier isCreatorRegistered () {\r\n        require(alreadyRegisteredCreator[msg.sender], \"Creator not registered!\");\r\n        _;\r\n    }\r\n\r\n    // Function to create a new creator from public address and return success\r\n    function newCreatorSignup () public {\r\n        if (alreadyRegisteredCreator[msg.sender]) {\r\n            emit WelcomeBackCreator();\r\n        }\r\n        else {\r\n            alreadyRegisteredCreator[msg.sender] = true;\r\n            allCreators.push(msg.sender);\r\n            numCreators = numCreators.add(1);\r\n            CreatorData[msg.sender].owner = msg.sender;\r\n            emit NewCreator();\r\n        }\r\n    }\r\n}",
  "sourcePath": "C:\\Users\\Shubham Bhardwaj\\Desktop\\ChainRunner\\meme_of_the_day\\src\\contracts\\EthreonBase.sol",
  "compiler": {
    "name": "solc",
    "version": "0.5.16+commit.9c3226ce.Emscripten.clang"
  },
  "schemaVersion": "3.2.0",
  "updatedAt": "2020-06-28T10:12:22.866Z",
  "devdoc": {
    "methods": {}
  },
  "userdoc": {
    "methods": {}
  }
}